:100000000C9462000C948A000C948A000C948A0070
:100010000C948A000C948A000C948A000C94F601CB
:100020000C948A000C948A000C948A000C948A0028
:100030000C948A000C948A000C948A000C948A0018
:100040000C947D040C948A000C94C4010C949E01C1
:100050000C948A000C948A000C948A000C948A00F8
:100060000C948A000C948A000000000023002600F3
:10007000290000000000240027002A0000000000E2
:10008000250028002B0004040404040404040202D4
:100090000202020203030303030301020408102007
:1000A0004080010204081020010204081020000012
:1000B0000008000201000003040700000000000027
:1000C0000000EA0E11241FBECFEFD8E0DEBFCDBF87
:1000D00022E0A6E1B1E001C01D92A23AB207E1F729
:1000E00011E0A0E0B1E0E4E6FFE102C005900D926E
:1000F000A631B107D9F710E0C2E6D0E004C02197DD
:10010000FE010E94A50FC136D107C9F70E94C7049E
:100110000C94B00F0C940000CF92DF92EF92FF92FC
:100120000F931F93CF93DF936C017A018B01C0E093
:10013000D0E0CE15DF0581F0D8016D918D01D6019B
:10014000ED91FC910190F081E02DC6010995892B7C
:1001500011F02196EECF7E01C701DF91CF911F9163
:100160000F91FF90EF90DF90CF900895089580E079
:1001700090E00895FC01538D448D252F30E0842FAD
:1001800090E0821B930B541710F0CF9608950197BF
:100190000895FC01918D828D981761F0828DDF01A9
:1001A000A80FB11D5D968C91928D9F5F9F73928F6A
:1001B00090E008958FEF9FEF0895FC01918D828D5F
:1001C000981731F0828DE80FF11D858D90E008952C
:1001D0008FEF9FEF0895FC01918D228D892F90E084
:1001E000805C9F4F821B91098F739927089588E245
:1001F00091E00E94EB0021E0892B09F420E0822F9E
:100200000895FC01848DDF01A80FB11DA35ABF4FD3
:100210002C91848D90E001968F739927848FA68905
:10022000B7892C93A089B1898C91837080648C9359
:10023000938D848D981306C00288F389E02D808108
:100240008F7D80830895EF92FF920F931F93CF933A
:10025000DF93EC0181E0888F9B8D8C8D981305C016
:10026000E889F989808185FD26C0F62E0B8D10E086
:100270000F5F1F4F0F731127E02E8C8DE8120CC0FB
:100280000FB607FCFACFE889F989808185FFF5CFA1
:10029000CE010E940101F1CF8B8DFE01E80FF11D0F
:1002A000E35AFF4FF0829FB7F8940B8FEA89FB89DE
:1002B000808180620AC09FB7F894EE89FF896083CD
:1002C000E889F98980818370806480839FBF81E0A1
:1002D00090E0DF91CF911F910F91FF90EF900895E3
:1002E000CF93DF93EC01888D8823C9F0EA89FB89DD
:1002F000808185FD05C0A889B9898C9186FD0FC0D4
:100300000FB607FCF5CF808185FFF2CFA889B989A8
:100310008C9185FFEDCFCE010E940101E7CFDF91E7
:10032000CF91089580E090E0892B29F00E94F7009A
:1003300081110C94000008950E94AB0F1F920F9240
:100340000FB60F9211242F933F934F935F936F93A8
:100350007F938F939F93AF93BF93EF93FF9388E225
:1003600091E00E940101FF91EF91BF91AF919F91A8
:100370008F917F916F915F914F913F912F910F904E
:100380000FBE0F901F9018951F920F920FB60F92ED
:1003900011242F938F939F93EF93FF93E091380154
:1003A000F09139018081E0913E01F0913F0182FDA1
:1003B00012C09081809141018F5F8F732091420123
:1003C000821751F0E0914101F0E0E85DFE4F958F1A
:1003D0008093410101C08081FF91EF919F918F91A6
:1003E0002F910F900FBE0F901F9018951F920F9294
:1003F0000FB60F9211242F933F934F935F936F93F8
:100400007F938F939F93AF93BF93CF93DF93EF939C
:10041000FF932091C60130E0F901E255FF4F84912E
:10042000F901E656FF4FD491F901EA57FF4FC49105
:10043000CC2379F081110E94AF03EC2FF0E0EE0F96
:10044000FF1FE859FF4FA591B491EC91ED2381E096
:1004500009F480E02091CB013091CC012F5F3F4F18
:100460003093CC012093CB012091C9013091CA0176
:100470002536310518F094E09093C5019091C5019F
:10048000911111C0811171C02091CB013091CC012B
:100490002436310508F45AC0109297021092CA010E
:1004A0001092C90129C09091C5019130F9F48130B1
:1004B00009F05BC02091C9013091CA01A9014F5FC9
:1004C0005F4F5093CA014093C9014091CB015091B5
:1004D000CC01220F331FF901E353FE4F51834083B8
:1004E0001092CC011092CB0192E03DC09091C501D9
:1004F000923031F581111CC02091C9013091CA019F
:10050000A9014F5F5F4F5093CA014093C9014091C9
:10051000CB015091CC01220F331FF901E353FE4F61
:10052000518340831092CC011092CB0191E01BC00B
:100530002091CB013091CC0125363105B0F012C0AD
:100540009091C501933039F481110FC01092CC0104
:100550001092CB010AC09091C501943031F491E022
:100560009093970293E09093C5019091C8019923CD
:10057000B9F081110AC08091C701882321F08091D0
:10058000C70161E009C02D9A0BC08091C701882383
:1005900031F08091C70160E00E94D80301C02D981E
:1005A000FF91EF91DF91CF91BF91AF919F918F918B
:1005B0007F916F915F914F913F912F910F900FBE5F
:1005C0000F901F90189560E088E00E94D80360E0CB
:1005D00087E00E94D80360E085E00E94D80360E0D5
:1005E00084E00C94D8033FB7F89480919E029091D8
:1005F0009F02A091A002B091A10226B5A89B05C0C0
:100600002F3F19F00196A11DB11D3FBFBA2FA92F91
:10061000982F8827820F911DA11DB11DBC01CD010E
:1006200042E0660F771F881F991F4A95D1F70895FA
:10063000AF92BF92CF92DF92EF92FF920F931F93F0
:10064000CF93DF938C017B015A01FC018081918162
:1006500020912401309125018217930708F062C090
:100660009C01220F331FE0912201F0912301E20F40
:10067000F31FC081D181817099276C01F1E0CF26F1
:10068000892B19F42CE93FEF02C024E630E0F90190
:10069000EA0DFB1DCF0163E470E00E945A0FC617FC
:1006A000D7076CF0CF0168E270E00E945A0F6F5FCD
:1006B0007F4F6C177D071CF021E030E021C09501D1
:1006C0002E0F3F1FC90163E470E00E945A0FC61746
:1006D000D7075CF52A0D3B1DC90163E470E00E9459
:1006E0005A0FC617D70774F1C90168E270E00E947B
:1006F0005A0F6F5F7F4F6C177D0724F123E030E0C6
:10070000F701808191810196821793073CF0F701F0
:1007100011821082F80180819181019691838083FA
:10072000C60112C081E090E00FC0C90168E270E02C
:100730000E945A0F6F5F7F4F6C177D075CF222E0BB
:1007400030E0DECF8FEF9FEFDF91CF911F910F91C0
:10075000FF90EF90DF90CF90BF90AF9008958330DF
:1007600081F028F4813099F08230A1F0089587302B
:10077000A9F08830B9F08430D1F4809180008F7D69
:1007800003C0809180008F7780938000089584B5A6
:100790008F7702C084B58F7D84BD08958091B000AD
:1007A0008F7703C08091B0008F7D8093B000089553
:1007B0001F93CF93DF93282F30E0F901E255FF4FCD
:1007C0008491F901E656FF4FD491F901EA57FF4FA2
:1007D000C491CC23C1F0162F81110E94AF03EC2FDE
:1007E000F0E0EE0FFF1FE458FF4FA591B4919FB7C3
:1007F000F894111104C08C91D095D82302C0EC91CB
:10080000DE2BDC939FBFDF91CF911F910895CF9393
:10081000DF9390E0FC01E656FF4F2491FC01EA577C
:10082000FF4F8491882361F190E0880F991FFC01AC
:10083000EE58FF4FC591D491FC01E458FF4FA591AC
:10084000B491611109C09FB7F894888120958223E3
:100850008883EC912E230BC0623061F49FB7F8942B
:100860008881322F309583238883EC912E2B2C9313
:100870009FBF06C08FB7F894E8812E2B28838FBFC7
:10088000DF91CF9108958F929F92AF92BF92CF92B6
:10089000DF92EF92FF926B017C010E94F3024B0109
:1008A0005C01C114D104E104F104F1F00E94F302EF
:1008B000DC01CB0188199909AA09BB09883E93403C
:1008C000A105B10570F321E0C21AD108E108F108D1
:1008D00088EE880E83E0981EA11CB11CC114D104BF
:1008E000E104F10419F7DDCFFF90EF90DF90CF9096
:1008F000BF90AF909F908F9008951F920F920FB668
:100900000F9211242F933F938F939F93AF93BF9395
:1009100080919A0290919B02A0919C02B0919D02BD
:100920003091990223E0230F2D3720F40196A11D69
:10093000B11D05C026E8230F0296A11DB11D20930D
:10094000990280939A0290939B02A0939C02B09389
:100950009D0280919E0290919F02A091A002B09171
:10096000A1020196A11DB11D80939E0290939F024A
:10097000A093A002B093A102BF91AF919F918F91DC
:100980003F912F910F900FBE0F901F901895CF930E
:10099000DF93CDB7DEB7A5970FB6F894DEBF0FBED5
:1009A000CDBF789484B5826084BD84B5816084BDF8
:1009B00085B5826085BD85B5816085BD80916E00FD
:1009C000816080936E00109281008091810082602E
:1009D000809381008091810081608093810080916B
:1009E00080008160809380008091B100846080935A
:1009F000B1008091B00081608093B00080917A0056
:100A0000846080937A0080917A00826080937A007B
:100A100080917A00816080937A0080917A0080686A
:100A200080937A001092C10061E088E00E94070480
:100A300061E087E00E94070461E085E00E9407040E
:100A400061E084E00E940704E0913801F0913901EF
:100A500082E08083E0913401F09135011082E091D1
:100A60003601F09137019FEC908310924001E091A4
:100A70003C01F0913D0196E09083E0913A01F091C4
:100A80003B01908190619083E0913A01F0913B01AC
:100A9000908198609083E0913A01F0913B019081C0
:100AA00090689083E0913A01F0913B0190819F7DA5
:100AB0009083F8948093B0008093B10094E6909373
:100AC000B3001092B2008093700078941092C50128
:100AD0001092CA011092C9018091C60160E00E9483
:100AE000070481E08093C80161E08DE00E94070463
:100AF00010E2212E312C2DEC31E030932301209394
:100B000022018091C9019091CA019093250180939F
:100B100024018091970290E0909327018093260111
:100B20008091C501833009F090C08091CF019091F0
:100B3000D001875891098E359105B0F48091C90193
:100B40009091CA01049741F48091D1019091D20112
:100B50008097479708F456C08091C9019091CA01C7
:100B60008434910508F074C08091C9019091CA0144
:100B7000809761F08091C9019091CA0180369105FA
:100B800089F523E030E03DA32CA304C081E090E090
:100B90009DA38CA38091CF019091D00103970597DD
:100BA00008F58091D1019091D2014997439708F0BF
:100BB000D5C181E090E0C12CD12C760100E010E09D
:100BC000FC01EE0FFF1FE353FE4F812C912C5401CB
:100BD00020E030E0408151814350510945305105BA
:100BE00008F4C5C18091C9019091CA01809708F4A9
:100BF0006FC280910B0290910C020397059708F445
:100C000067C066C28091D3019091D401099709977A
:100C100008F0A2CF10922101109220018FEF9FEFD8
:100C2000DC0180931A0190931B01A0931C01B093E7
:100C30001D01A3E0B0E0B0931701A093160110923C
:100C4000C5011092CA011092C9010E94920153CFAE
:100C50008091D1019091D201815491098F9708F030
:100C600083CF80E090E040E050E0BA01FC01ED521B
:100C7000FE4F20813181295031092930310508F09A
:100C800073CFFC01EB52FE4F208131812751310996
:100C90002231310508F055C1440F551F661F771FDB
:100CA000416004968038910509F730922101209225
:100CB000200140931A0150931B0160931C01709313
:100CC0001D01E3E0F0E0F0931701E093160154C03A
:100CD0008091090290910A020897099708F0F8C1DB
:100CE0002091CD013091CE01A2E3B0E00E94370FF8
:100CF0006135734C810591050CF4D2C180E090E020
:100D000040E050E0FC01EF5FFD4F20813181285130
:100D100031092331310508F005C2440F551F4160E8
:100D200004978C3CBFEF9B0769F78DE090E09093B0
:100D3000210180932001CA01807299270197909325
:100D4000190180931801CA0175E0969587957A95E7
:100D5000E1F7A0E0B0E080931A0190931B01A0930B
:100D60001C01B0931D018FE090E0909317018093D8
:100D7000160181E08093000100911A0110911B017E
:100D800020911C0130911D010F3FAFEF1A072A0778
:100D90003A0709F454CF19A2BE016F5D7F4FD90104
:100DA000C8018F709927AA27BB27A4E036952795FD
:100DB00017950795AA95D1F7615071098A3014F4F7
:100DC000805D01C0895CFB0180830115110521054F
:100DD000310529F76115710559F001900020E9F7F7
:100DE0003197AF01461B570B88E291E00E948C00BF
:100DF00042E050E063E171E088E291E00E948C0003
:100E000080911A0190911B01A0911C01B0911D01CC
:100E1000873E9841AF4FB10581F461E088E00E94C0
:100E2000D80360E087E00E94D80361E085E00E947B
:100E3000D80360E084E00E94D80380911A01909169
:100E40001B01A0911C01B0911D01853B9A44AF4F3D
:100E5000B10581F460E088E00E94D80361E087E09A
:100E60000E94D80360E085E00E94D80361E084E03E
:100E70000E94D80380911A0190911B01A0911C013E
:100E8000B0911D018F3E9041AF4FB105F1F460E08C
:100E900088E00E94D80361E087E00E94D80361E007
:100EA00085E00E94D80360E084E00E94D80368E5F2
:100EB00072E080E090E00E9443040E94E30268EE4A
:100EC00073E080E090E00E94430480911A019091C9
:100ED0001B01A0911C01B0911D01853A9A45AF4FAD
:100EE000B105F1F461E088E00E94D80360E087E09A
:100EF0000E94D80360E085E00E94D80361E084E0AE
:100F00000E94D80368E572E080E090E00E9443040C
:100F10000E94E30268EE73E080E090E00E944304E8
:100F200080911A0190911B01A0911C01B0911D01AB
:100F3000873C9843AF4FB10509F081CE0E94E30290
:100F40007ECE20813181265031092730310508F0CD
:100F50000BCE440F551F661F771FA3CE8091D10182
:100F60009091D2010A97099708F423CE3BCE428193
:100F70005381495151094331510540F541E050E059
:100F8000022E02C0440F551F0A94E2F7052E000CF2
:100F9000660B770B840E951EA61EB71E02962F5F5A
:100FA0003F4F34962530310509F014CEFC01EE0F89
:100FB000FF1FE353FE4F40E050E0BA0120E030E075
:100FC000A081B1811397159748F00CCE42815381CF
:100FD0004A5051094930510508F304CEA281B3812A
:100FE0005997539708F055C0A1E0B0E0022E02C017
:100FF000AA0FBB1F0A94E2F72D01BB0F6608770802
:10100000440D551D661D771DDC0112962F5F3F4F65
:1010100034962830310511F0CD01D2CF0896C11495
:10102000D104E104F10431F04C155D056E057F0536
:1010300009F0D8CD6A017B01C0940F5F1F4FACA1AE
:10104000BDA1A017B10709F0BBCD8FE090E0909350
:1010500021018093200140931A0150931B0160935A
:101060001C0170931D0190921901809218018EE06D
:1010700090E00AC0C0921A01D0921B01E0921C01BC
:10108000F0921D0184E090E0909317018093160187
:1010900073CEA281B3811A97199708F4B5CFA2CD68
:1010A00080910001811112C0109221011092200143
:1010B0008FEF9FEFDC0180931A0190931B01A093A7
:1010C0001C01B0931D018EE090E027C0109200013A
:1010D0008091C9019091CA014A9708F47AC0209181
:1010E000CD013091CE0142E3429FC001439F900D5C
:1010F0001124843F914000F51092210110922001AB
:101100008FEF9FEFDC0180931A0190931B01A09356
:101110001C01B0931D018BE090E090931701809328
:1011200016018DCD208131812850310929303105BA
:1011300078F6440F551FF4CD8091CF019091D001E6
:1011400085974B9708F045C0E3EDF1E082E090E031
:10115000C12CD12C76012091C9013091CA01AC017A
:101160004F5F5F4F4217530748F4DF0112972D91ED
:101170003C91275031092730310578F00197969539
:10118000879590932101809320010C9708F072CFEE
:1011900010922101109220011CC020813181235125
:1011A00031092F30310548F4CC0CDD1CEE1CFF1C3E
:1011B0006894C0F802963496CECF208131812A50AF
:1011C00031092930310528F4CC0CDD1CEE1CFF1C44
:1011D000F1CF8091C9019091CA014A9708F46DC07E
:1011E0002091CD013091CE0142E3429FC001439F47
:1011F000900D11248032934008F47ECF8091CF016E
:101200009091D001C597879708F057C08091D10180
:101210009091D201C597879708F04FC0E5EDF1E0B6
:1012200083E090E0C12CD12C76012091C90130914E
:10123000CA01AC014F5F5F4F4217530748F4DF010B
:1012400012972D913C912C5031092B303105C8F06B
:1012500001979695879590932101809320010C9793
:1012600028F4109221011092200127C0C0921A0187
:10127000D0921B01E0921C01F0921D018BE090E0E6
:1012800003CF20813181255231092B31310548F4BA
:10129000CC0CDD1CEE1CFF1C6894C0F80296349642
:1012A000C4CF208131812B5031092B30310528F4F6
:1012B000CC0CDD1CEE1CFF1CF1CF8091C90190917C
:1012C000CA01829708F459C08091CF019091D00152
:1012D0000697079708F051C0E3EDF1E082E090E057
:1012E000C12CD12C76019C012F5F3F4F4091C90149
:1012F0005091CA0124173507C8F4DF0112974D91A8
:101300005C9111974E5151094731510540F5CC0C74
:10131000DD1CEE1CFF1C6894C0F84081518134969E
:10132000435051094530510530F1C9010197969557
:1013300087959093210180932001409728F4109283
:1013400021011092200119C0C0921A01D0921B01F4
:10135000E0921C01F0921D018CE090E095CE4D9141
:101360005C914C5051094B30510538F4CC0CDD1CCC
:10137000EE1CFF1CD2CF0296B6CF1BA21AA281E0B0
:1013800090E09A8389838091C9019091CA010D9759
:1013900070F41BA21AA2E1E0F0E0FA83E9838091E5
:1013A000240190912501892B09F4C9C070C049E737
:1013B00053E0BE016E5D7F4FCE0101960E9418037F
:1013C000892B39F749E753E0BE016E5D7F4FCE01AF
:1013D00001960E9418030197E1F649E753E0BE0128
:1013E0006E5D7F4FCE0101960E941803892B89F60E
:1013F000812C912C540100E010E02091C901309122
:10140000CA0189819A818217930770F549E753E0F1
:10141000BE016E5D7F4FCE0101960E9418037C01D4
:1014200049E753E0BE016E5D7F4FCE0101960E94F9
:101430001803F1E0EF16F10451F4892B09F0A9CF5C
:10144000880C991CAA1CBB1C689480F80AC0EF2861
:1014500009F09FCF019709F09CCF880C991CAA1C1A
:10146000BB1C0F5F1F4FC9CF1093210100932001B8
:1014700080921A0190921B01A0921C01B0921D0152
:1014800021E030E0309317012093160175CCE091F4
:101490002201F09123018281938189974E9708F070
:1014A0004EC082E090E09A838983848195810B9776
:1014B0000A9708F044C0A3E0B0E0BA83A9834CEBDC
:1014C00051E0BE016E5D7F4FCE0101960E94180370
:1014D000892BA9F54CEB51E0BE016E5D7F4FCE012B
:1014E00001960E941803019751F5812C912C54010B
:1014F00000E010E0209124013091250189819A813A
:101500008217930708F01FC14CEB51E0BE016E5DDE
:101510007F4FCE0101960E9418037C010330110514
:1015200009F0DBC04CEB51E0BE016E5D7F4FCE0198
:1015300001960E941803E816F90609F4CEC0E0915E
:101540002201F091230182819381C5978797E0F46E
:10155000848195814B974597B8F4DF0116967F01FA
:1015600096ECE90EF11C20E030E040E050E060E055
:1015700070E080E090E00D911C91119708501109E6
:101580000930110508F4EEC08091C9019091CA019B
:10159000C997E8F082819381885791098435910534
:1015A000B0F484819581CA97899788F49F012A5F56
:1015B0003F4FC12CD12C760143E050E0D9016D9111
:1015C0007C916A5071096930710508F407C18091F6
:1015D000C9019091CA01829731F4828193810A975F
:1015E000099708F444C18281938188579109843511
:1015F0009105E0F48091C9019091CA018197B0F002
:1016000084819581CA97899788F49F012A5F3F4F0B
:10161000C12CD12C760143E050E0D9016D917C9131
:101620006A5071096930710508F443C18281938160
:1016300084549109C197A0F48091C9019091CA0185
:10164000049731F4848195818097479708F493C17A
:101650008091C9019091CA018434910508F072C14A
:101660008091C9019091CA018634910528F1828147
:1016700093810C970B9700F58481958109970997C1
:10168000D8F4868197818C974F97B0F480859185A7
:1016900089974D9788F49F01265F3F4FC12CD12C2D
:1016A000760145E050E0D9016D917C916C50710953
:1016B0006B30710508F4AFC18091C9019091CA01E6
:1016C0008835910508F447C2828193818458910935
:1016D0008C35910508F4E6C13EC24CEB51E0BE01E9
:1016E0006E5D7F4FCE0101960E9418036C0103309E
:1016F000110569F44CEB51E0BE016E5D7F4FCE01E8
:1017000001960E941803C816D90609F018CFE114F3
:10171000F10459F4CA94CD2809F011CF880C991C12
:10172000AA1CBB1C689480F80BC0EA94EF2809F04F
:1017300006CFCD2809F003CF880C991CAA1CBB1C2E
:101740000F5F1F4FD7CE109321010093200180928D
:101750001A0190921B01A0921C01B0921D0182E01F
:1017600090E092CC12960D911C91139701511109A2
:101770000D30110528F501E00E946E0F21601496CE
:10178000AE15BF0509F0F7CE20931A0130931B0167
:1017900040931C0150931D0100E20E94890F209389
:1017A000180130931901A5E0B0E0B0931701A093A0
:1017B0001601E0E3F0E0F0932101E0932001DCCAA0
:1017C00012960D911C9113970450110905301105C3
:1017D00008F0DACE01E00E946E0FD1CFD901129647
:1017E0006D917C911397665171096131710578F59E
:1017F000D701C601880F991FAA1FBB1F6C017D016D
:101800006894C0F84E5F5F4F2C5F3F4F4B335105DC
:1018100009F0D4CE9F012A583F4FD9012D913C9118
:101820002A5031092930310508F0D1CE2CE130E0C1
:101830003093210120932001C0921A01D0921B0104
:10184000E0921C01F0921D018AE090E01DCCD901CC
:1018500012966D917C9113976650710967307105EE
:1018600008F0B5CECC0CDD1CEE1CFF1CCBCFA0913C
:10187000C901B091CA01A150B048AA0FBB1FAE0F59
:10188000BF1F8D919C910A97099708F0ACCE1092DA
:101890002101109220018FEF9FEFDC0180931A014C
:1018A00090931B01A0931C01B0931D0186E090E072
:1018B00034CCD90112966D917C91139766517109C0
:1018C0006131710578F5D701C601880F991FAA1FEC
:1018D000BB1F6C017D016894C0F84E5F5F4F2C5FA9
:1018E0003F4F4332510509F098CE9F012A5B3F4F8D
:1018F000D9012D913C912A5031092930310508F048
:1019000095CE20E130E03093210120932001C09258
:101910001A01D0921B01E0921C01F0921D0186E099
:1019200090E0B2CBD90112966D917C9113976650DD
:1019300071096730710508F079CECC0CDD1CEE1C06
:10194000FF1CCBCF84819581815491098F9708F03A
:1019500087CE9F012A5F3F4FBF016A577F4FC12C3F
:10196000D12C7601D9014D915C91495051094930F2
:101970005105C8F075CE868197810997099708F0BF
:1019800067CE10922101109220018FEF9FEFDC01B2
:1019900080931A0190931B01A0931C01B0931D0129
:1019A00087E090E0BACBD90112964D915C911397E4
:1019B0004651510941315105F0F4D701C601880F54
:1019C000991FAA1FBB1F6C017D016894C0F82C5F92
:1019D0003F4F2617370731F6309221012092200120
:1019E000C0921A01D0921B01E0921C01F0921D01DD
:1019F00087E090E049CBD90112964D915C91139705
:101A0000465051094730510508F02ACECC0CDD1C58
:101A1000EE1CFF1CDCCFD90112966D917C911397BF
:101A20006E5171096731710568F5D701C601880FDC
:101A3000991FAA1FBB1F6C017D016894C0F84E5FFF
:101A40005F4F2C5F3F4F4534510509F02CCE9F016D
:101A500026573F4FD9012D913C912C5031092B3005
:101A6000310508F029CE3092210120922001C09248
:101A70001A01D0921B01E0921C01F0921D0188E036
:101A800090E002CBD90112966D917C911397695029
:101A900071096930710508F00FCECC0CDD1CEE1C0D
:101AA000FF1CCDCF84819581815491098F9708F0D7
:101AB00052C08F01045C1F4F8DE190E020E030E0C8
:101AC0004091C9015091CA014450510984179507AA
:101AD000A8F4A80142505109DA014D915C91485097
:101AE00051094930510510F136C0D8014D915C9132
:101AF000475151094331510558F1CB010197969552
:101B0000879590932101809320018A9720F1C90144
:101B1000330FAA0BBB0B80931A0190931B01A09368
:101B20001C01B0931D0189E090E0AECABC016F5F5B
:101B30007F4FD8014D915C91475051094730510575
:101B4000A0F6220F331F216002960C5F1F4FB8CF03
:101B5000220F331FF9CF8091C9019091CA0180975C
:101B6000E1F48281938105970797B8F48481958188
:101B70000997099790F49F012A5F3F4FBF01625C6C
:101B80007F4FC12CD12C7601D9014D915C914550EC
:101B900051094730510508F4C5C08091C9019091A1
:101BA000CA0184369105A0F4C0902401D09025018B
:101BB000B6E0CB16D10408F442C8369625EC3DE9D0
:101BC0004CE151E8B3E0EB2EF12C1AE0B12E5AC0F3
:101BD0006F0122E0C20ED11C20E030E040E010E0B6
:101BE00000E0F12CE12C712C44244394512C809181
:101BF000C9019091CA01B2016F5F7F4F68177907E1
:101C0000D0F4D6018D909C90B2E04B0E511CD601C1
:101C10001296AD90BC901397C501B4010E94460F77
:101C2000B2E18B1A91088A0C9B1C8FE088169104F4
:101C300008F4B2C0B9CF29833A834B831C830D8348
:101C4000FE82EF82788683E190E090931701809383
:101C500016015694479450922101409220018B81A5
:101C60009C81AD81BE8180931A0190931B01A0934A
:101C70001C01B0931D0189819A8190931F0180936B
:101C80001E017AC880819181DF0114970D911C910A
:101C9000B89E4001B99E900C1124D80163E0AA0FB0
:101CA000BB1F6A95E1F78A169B0680F0B09EB001D3
:101CB000B19E700D1124B3E0880F991FBA95E1F71A
:101CC0006817790730F402E010E005C000E010E08A
:101CD00002C001E010E063E971E080E091E00E9461
:101CE0001C0F2801110F66087708A301920126270F
:101CF0003727482759279FEFE91AF90A3296EC143B
:101D0000FD0409F0BFCF20931A0130931B014093CB
:101D10001C0150931D0130922101209220018FEF70
:101D20009FEFB2C9D90112964D915C911397495119
:101D300051094331510528F112964D915C91139749
:101D4000495051094930510508F027CFCC0CDD1C12
:101D5000EE1CFF1C2C5F3F4F6217730709F014CF76
:101D60002EE030E03093210120932001C0921A012F
:101D7000D0921B01E0921C01F0921D0180E190E0E5
:101D800083C9D701C601880F991FAA1FBB1F6C0109
:101D90007D016894C0F8DECF6230710548F0512FA4
:101DA000602F7F2D8E2D972D01E00E946E0F09C0B0
:101DB000512F602F7F2D8E2D972D01E00E946E0FE9
:101DC0002160152F062FF72EE82E792E84E0C80EFD
:101DD000D11C0DCFE8E2F1E01382128288EE93E08D
:101DE000A0E0B0E084839583A683B78385E091E08B
:101DF0009183808385EC90E09587848784EC90E0E4
:101E00009787868780EC90E0918B808B81EC90E0C7
:101E1000938B828B82EC90E0958B848B86EC90E0A8
:101E2000978B868B118E128E138E148EE5ECF1E05B
:101E30008AE0818313820895DB018F939F930E9430
:101E40002C0FBF91AF91A29F800D911DA39F900D6C
:101E5000B29F900D112408950E94370FA59F900DF9
:101E6000B49F900DA49F800D911D11240895A29FF1
:101E7000B001B39FC001A39F700D811D1124911D5E
:101E8000B29F700D811D1124911D0895AA1BBB1BCB
:101E900051E107C0AA1FBB1FA617B70710F0A61B6A
:101EA000B70B881F991F5A95A9F780959095BC018B
:101EB000CD01089597FB072E16F4009407D077FD07
:101EC00009D00E94460F07FC05D03EF490958195FD
:101ED0009F4F0895709561957F4F08950F93083037
:101EE00090F0982F872F762F652F542F432F322F66
:101EF00022270850F4CF220F331F441F551F661F9F
:101F0000771F881F991F0A95B2F70F91089597FBC5
:101F100010F8169400080F93083098F00850232FFB
:101F2000342F452F562F672F782F892F902DF4CFE0
:101F30000594979587957795679557954795379524
:101F400027950A95AAF70F910895EE0FFF1F0590A8
:101F5000F491E02D099481E090E0F8940C94B00F96
:041F6000F894FFCF23
:101F6400010000000023018C00BA007001EB00C9DD
:061F740000DD000D0A0073
:00000001FF
