:100000000C9462000C948A000C948A000C948A0070
:100010000C948A000C948A000C948A000C948A0038
:100020000C948A000C948A000C948A000C9495021B
:100030000C948A000C948A000C948A000C948A0018
:100040000C944B020C948A000C948A000C948A0045
:100050000C948A000C948A000C948A000C948A00F8
:100060000C948A000C948A000000000024002700F1
:100070002A0000000000250028002B0000000008D6
:10008000000201000003040700000000000000005F
:1000900000000000230026002900040404040404D6
:1000A0000404020202020202030303030303010227
:1000B00004081020408001020408102001020408F6
:1000C0001020210511241FBECFEFD8E0DEBFCDBF29
:1000D00011E0A0E0B1E0EEE9FBE002C005900D9276
:1000E000A030B107D9F721E0A0E0B1E001C01D9236
:1000F000A533B207E1F710E0C2E6D0E004C02197D3
:10010000FE010E94C705C136D107C9F70E949B03B3
:100110000C94CD050C94000090E0FC01E458FF4FD6
:100120002491FC01E255FF4F3491FC01E656FF4F4C
:10013000E491EE2309F43CC0222339F1233091F0FD
:1001400038F42130A9F0223001F584B58F7D12C03A
:10015000273091F02830A1F02430B9F4809180004C
:100160008F7D03C0809180008F77809380000DC0C9
:1001700084B58F7784BD09C08091B0008F7703C0AC
:100180008091B0008F7D8093B000F0E0EE0FFF1FF4
:10019000EE58FF4FA591B4919FB7F894611104C038
:1001A0008C913095382302C0EC913E2B3C939FBF3D
:1001B0000895CF93DF9390E0FC01E255FF4F249127
:1001C000FC01E656FF4F8491882361F190E0880F8F
:1001D000991FFC01E859FF4FC591D491FC01EE58DD
:1001E000FF4FA591B491611109C09FB7F894888120
:1001F000209582238883EC912E230BC0623061F41A
:100200009FB7F8948881322F309583238883EC91AF
:100210002E2B2C939FBF06C08FB7F894E8812E2B0E
:1002200028838FBFDF91CF9108953FB7F8948091D5
:10023000310190913201A0913301B091340126B582
:10024000A89B05C02F3F19F00196A11DB11D3FBF0E
:10025000BA2FA92F982F8827820F911DA11DB11D9C
:10026000BC01CD0142E0660F771F881F991F4A9598
:10027000D1F708958F929F92AF92BF92CF92DF9263
:10028000EF92FF926B017C010E9415014B015C0112
:10029000C114D104E104F104F1F00E941501DC0164
:1002A000CB0188199909AA09BB09883E9340A10589
:1002B000B10570F321E0C21AD108E108F10888EE17
:1002C000880E83E0981EA11CB11CC114D104E10466
:1002D000F10419F7DDCFFF90EF90DF90CF90BF9042
:1002E000AF909F908F900895CF92DF92EF92FF9200
:1002F000CF93DF93EC01603282E078070CF03DC0D1
:1003000077FD06C0653B71052CF064EB70E002C020
:1003100060E070E0898128E830E06901C81AD108FE
:1003200087FDD394CC0CDD1CCC0CDD1C0D2C000CFB
:10033000EE08FF088A8128E532E0281B310987FD95
:100340003395220F331F220F331FC901330FAA0B1E
:10035000BB0B9C01AD012C193D094E095F09DB0166
:100360000E94820524EB30E040E050E00E945805F6
:10037000C20ED31EE41EF51EB60138813C3080F556
:10038000298188E890E0821B910927FD9395880FC9
:10039000991F880F991F6817790784F08A8148E5AB
:1003A00052E0481B510987FD5395440F551F440FD8
:1003B000551FCB01461757070CF4CA010297880F47
:1003C000991F4FB7F894232F30E0F901EE0FFF1F6C
:1003D0002E0F3F1FF901EE5FFE4F928381834FBFC7
:1003E000DF91CF91FF90EF90DF90CF900895892B10
:1003F00079F41092800082E0809381001092850051
:1004000010928400B19A80916F00826080936F0097
:1004100008956AE570E089E291E00E9474016AE55E
:1004200070E086E291E00C94740160E070E089E293
:1004300091E00E94740160E070E086E291E00C942B
:1004400074010F931F93E6EBF0E06491E2EAF0E0B1
:10045000E491F0E0EE0FFF1FE057FF4F859194917C
:1004600000E412E42FE030E0462F0E9456036115AD
:1004700071058105910549F0DC01CB010196A11DB3
:10048000B11DBC01CD019F7003C060E070E0CB01E5
:100490001F910F9108951F920F920FB60F92112482
:1004A0002F933F938F939F93AF93BF9380912D0191
:1004B00090912E01A0912F01B091300130912C012B
:1004C00023E0230F2D3720F40196A11DB11D05C097
:1004D00026E8230F0296A11DB11D20932C018093C5
:1004E0002D0190932E01A0932F01B09330018091A4
:1004F000310190913201A0913301B0913401019604
:10050000A11DB11D8093310190933201A09333015D
:10051000B0933401BF91AF919F918F913F912F91F3
:100520000F900FBE0F901F9018951F920F920FB64D
:100530000F9211242F933F934F935F936F937F9369
:100540008F939F93AF93BF93EF93FF93809101019C
:1005500087FF05C010928500109284001BC0209177
:100560000101022E000C330B8091000190E028174E
:10057000390784F480910101082E000C990BFC01CD
:10058000EE0FFF1F8E0F9F1FFC01EE5FFE4F80815D
:1005900086FD15C0809101018F5F8093010120913C
:1005A0000101022E000C330B8091000190E028170E
:1005B0003907C4F4809101018C3064F113C080913B
:1005C0000101082E000C990BFC01EE0FFF1F8E0F8E
:1005D0009F1FFC01EE5FFE4F808160E08F730E94E1
:1005E0008C00D8CF8091840090918500049680344F
:1005F0009C4918F480E49CE905C0809184009091A6
:100600008500049690938900809388008FEF8093F3
:1006100001013BC02091840030918500809101014F
:10062000082E000C990BFC01EE0FFF1F8E0F9F1F71
:10063000FC01EE5FFE4F81819281820F931F9093A8
:1006400089008093880080910101082E000C990B8D
:10065000FC01EE0FFF1F8E0F9F1FFC01EE5FFE4F90
:10066000808186FF12C080910101082E000C990B39
:10067000FC01EE0FFF1F8E0F9F1FFC01EE5FFE4F70
:10068000808161E08F730E948C00FF91EF91BF9198
:10069000AF919F918F917F916F915F914F913F911A
:1006A0002F910F900FBE0F901F901895CF92DF9251
:1006B000EF92FF920F931F93E82FF92F05C001507F
:1006C00011092109310961F1908196239417B9F339
:1006D00005C0015011092109310911F190819623BA
:1006E0009413F7CFC12CD12CE12CF12C0AC08FEF41
:1006F000C81AD80AE80AF80A0C151D052E053F0588
:1007000079F080818623841791F36C2D7D2D8E2DB9
:100710009F2D1F910F91FF90EF90DF90CF90089544
:1007200060E070E080E090E01F910F91FF90EF900B
:10073000DF90CF900895789484B5826084BD84B5AD
:10074000816084BD85B5826085BD85B5816085BDCC
:1007500080916E00816080936E0010928100809184
:10076000810082608093810080918100816080930C
:100770008100809180008160809380008091B10031
:1007800084608093B1008091B00081608093B0005C
:1007900080917A00846080937A0080917A008260F0
:1007A00080937A0080917A00816080937A008091B2
:1007B0007A00806880937A001092C10080912901AC
:1007C0008C3008F043C061E089E00E94D90080913C
:1007D0002901E82FF0E09F01220F331FE20FF31FE2
:1007E000EE5FFE4F9081907C9960908310922A0179
:1007F00010922B016CE00E94BB0590E02CE0829FE0
:10080000B001112440E050E09B01240F351FF90195
:10081000EE0FFF1F2E0F3F1FF901EE5FFE4F2081ED
:1008200026FD07C04F5F5F4F4C30510569F70E94AE
:10083000F701E0912901F0E0CF01880F991FE80F3F
:10084000F91FEE5FFE4F80818064808380912601D6
:100850008C3008F043C061E08AE00E94D9008091AA
:100860002601E82FF0E09F01220F331FE20FF31F54
:10087000EE5FFE4F9081907C9A60908310922701EA
:10088000109228016CE00E94BB0590E02CE0829F52
:10089000B001112440E050E09B01240F351FF90105
:1008A000EE0FFF1F2E0F3F1FF901EE5FFE4F20815D
:1008B00026FD07C04F5F5F4F4C30510569F70E941E
:1008C000F701E0912601F0E0CF01880F991FE80FB2
:1008D000F91FEE5FFE4F80818064808360E088E0D6
:1008E0000E94D90061E087E00E94D9000E940902BD
:1008F000C3E0D0E003E210E084E9C82ED12CE12C63
:10090000F12C90E0A92E90E0B92E60E087E00E94E3
:100910008C00CE010197F1F761E087E00E948C0026
:10092000C8010197F1F760E087E00E948C000E9407
:100930002102A70196010E945805253031050CF0CF
:1009400071C00E9409026CE271E080E090E00E94B8
:100950003A0164EB70E089E291E00E94740164EB7B
:1009600070E086E291E00E94740168EE73E080E03E
:1009700090E00E943A010E9409026CE271E080E07E
:1009800090E00E943A0160E070E089E291E00E940C
:10099000740164EB70E086E291E00E9474016CEBFC
:1009A00072E080E090E00E943A010E9409026CE24D
:1009B00071E080E090E00E943A0160E087E00E94F0
:1009C0008C00CE010197F1F761E087E00E948C0076
:1009D000C8010197F1F760E087E00E948C000E9457
:1009E0002102A70196010E94580525303105D4F453
:1009F00064EB70E089E291E00E94740160E070E0D5
:100A000086E291E00E94740168E775E080E090E082
:100A10000E943A010E9409026CE271E080E090E0DD
:100A20000E943A010E94150264E670E080E090E0C6
:100A30000E943A01A114B10409F467CF0E9400009A
:100A400064CF809100018C30A0F491E0980F9093D6
:100A500000018093290190E0FC01EE0FFF1F8E0F33
:100A60009F1FFC01EE5FFE4F88EB9BE0928381832A
:100A700003C08FEF80932901809100018C30A0F496
:100A800091E0980F909300018093260190E0FC0183
:100A9000EE0FFF1F8E0F9F1FFC01EE5FFE4F88EBD6
:100AA0009BE09283818308958FEF809326010895C0
:100AB000052E97FB1EF400940E946F0557FD07D08A
:100AC0000E948A0507FC03D04EF40C946F055095E4
:100AD0004095309521953F4F4F4F5F4F089590952A
:100AE0008095709561957F4F8F4F9F4F08950E941D
:100AF000AC05A59F900DB49F900DA49F800D911DF6
:100B000011240895B7FF0C9477050E947705821B86
:100B1000930B0895A1E21A2EAA1BBB1BFD010DC069
:100B2000AA1FBB1FEE1FFF1FA217B307E407F5079D
:100B300020F0A21BB30BE40BF50B661F771F881F79
:100B4000991F1A9469F760957095809590959B010F
:100B5000AC01BD01CF010895A29FB001B39FC001B8
:100B6000A39F700D811D1124911DB29F700D811DD9
:100B70001124911D0895991B79E004C0991F9617BF
:100B800008F0961B881F7A95C9F780950895EE0F97
:0E0B9000FF1F0590F491E02D0994F894FFCF1B
:107E0000112484B714BE81FFF0D085E080938100F7
:107E100082E08093C00088E18093C10086E0809377
:107E2000C20080E18093C4008EE0C9D0259A86E02C
:107E300020E33CEF91E0309385002093840096BBD3
:107E4000B09BFECF1D9AA8958150A9F7CC24DD24C4
:107E500088248394B5E0AB2EA1E19A2EF3E0BF2EE7
:107E6000A2D0813461F49FD0082FAFD0023811F036
:107E7000013811F484E001C083E08DD089C08234E0
:107E800011F484E103C0853419F485E0A6D080C0E4
:107E9000853579F488D0E82EFF2485D0082F10E0AE
:107EA000102F00270E291F29000F111F8ED06801E7
:107EB0006FC0863521F484E090D080E0DECF843638
:107EC00009F040C070D06FD0082F6DD080E0C81688
:107ED00080E7D80618F4F601B7BEE895C0E0D1E017
:107EE00062D089930C17E1F7F0E0CF16F0E7DF06D8
:107EF00018F0F601B7BEE89568D007B600FCFDCFD4
:107F0000A601A0E0B1E02C9130E011968C91119780
:107F100090E0982F8827822B932B1296FA010C0160
:107F200087BEE89511244E5F5F4FF1E0A038BF0790
:107F300051F7F601A7BEE89507B600FCFDCF97BE46
:107F4000E89526C08437B1F42ED02DD0F82E2BD052
:107F50003CD0F601EF2C8F010F5F1F4F84911BD097
:107F6000EA94F801C1F70894C11CD11CFA94CF0C13
:107F7000D11C0EC0853739F428D08EE10CD085E9AC
:107F80000AD08FE07ACF813511F488E018D01DD067
:107F900080E101D065CF982F8091C00085FFFCCF94
:107FA0009093C60008958091C00087FFFCCF809118
:107FB000C00084FD01C0A8958091C6000895E0E648
:107FC000F0E098E1908380830895EDDF803219F02E
:107FD00088E0F5DFFFCF84E1DECF1F93182FE3DFCA
:107FE0001150E9F7F2DF1F91089580E0E8DFEE27F6
:047FF000FF270994CA
:027FFE00040479
:0400000300007E007B
:00000001FF
